:060000000A128A110C280F
:10000800FE00030EF1000A08F2000A128A114628BF
:100018000A128A110F2883010A128A115F281030E8
:100028008316031788008901831603138501870146
:100038000130890083120313850187018901831622
:1000480003130F088F3960388F000F149F131F1286
:100058009F12831203131F083F3940389F001F085F
:10006800C33914389F001F141030F300F30B3A28DB
:100078000000831203130C13831603130C170B17BA
:100088008B170800831203130C1F4B284C28582881
:100098001F0CF000700C0F39053A031D5428552821
:1000A80057281E0885000C1372088A00710E8300F9
:1000B800FE0E7E0E09000A128A1113200A128A11F6
:1000C800831203139F149F186A286B2867281F0838
:1000D800C33914389F009F1467280A128A110C2804
:04400E00D438FF3F64
:00000001FF
